{
  "contractName": "User",
  "abi": [
    {
      "inputs": [],
      "payable": true,
      "stateMutability": "payable",
      "type": "constructor"
    },
    {
      "constant": false,
      "inputs": [
        {
          "name": "_value",
          "type": "uint256"
        }
      ],
      "name": "addProperty",
      "outputs": [],
      "payable": false,
      "stateMutability": "nonpayable",
      "type": "function"
    },
    {
      "constant": false,
      "inputs": [
        {
          "name": "_lendAmount",
          "type": "uint256"
        },
        {
          "name": "_interestRate",
          "type": "uint256"
        }
      ],
      "name": "createPost",
      "outputs": [],
      "payable": false,
      "stateMutability": "nonpayable",
      "type": "function"
    }
  ],
  "bytecode": "0x6080604052336000806101000a81548173ffffffffffffffffffffffffffffffffffffffff021916908373ffffffffffffffffffffffffffffffffffffffff160217905550600060028190555061079b8061005b6000396000f3fe608060405234801561001057600080fd5b5060043610610053576000357c010000000000000000000000000000000000000000000000000000000090048063267982e814610058578063fb598f8714610086575b600080fd5b6100846004803603602081101561006e57600080fd5b81019080803590602001909291905050506100be565b005b6100bc6004803603604081101561009c57600080fd5b810190808035906020019092919080359060200190929190505050610160565b005b6000816040516100cd906102d9565b80828152602001915050604051809103906000f0801580156100f3573d6000803e3d6000fd5b50905060018190806001815401808255809150509060018203906000526020600020016000909192909190916101000a81548173ffffffffffffffffffffffffffffffffffffffff021916908373ffffffffffffffffffffffffffffffffffffffff160217905550505050565b6000809054906101000a900473ffffffffffffffffffffffffffffffffffffffff1673ffffffffffffffffffffffffffffffffffffffff163182111515156101a757600080fd5b60a0604051908101604052806000809054906101000a900473ffffffffffffffffffffffffffffffffffffffff1673ffffffffffffffffffffffffffffffffffffffff168152602001838152602001828152602001600081526020016000600281111561021057fe5b815250600360025481548110151561022457fe5b906000526020600020906007020160008201518160000160006101000a81548173ffffffffffffffffffffffffffffffffffffffff021916908373ffffffffffffffffffffffffffffffffffffffff16021790555060208201518160010155604082015181600201556060820151816003015560808201518160040160006101000a81548160ff021916908360028111156102bb57fe5b02179055509050506002600081548092919060010191905055505050565b610489806102e78339019056fe608060405234801561001057600080fd5b506040516020806104898339810180604052602081101561003057600080fd5b8101908080519060200190929190505050336000806101000a81548173ffffffffffffffffffffffffffffffffffffffff021916908373ffffffffffffffffffffffffffffffffffffffff1602179055506000809054906101000a900473ffffffffffffffffffffffffffffffffffffffff16600160006101000a81548173ffffffffffffffffffffffffffffffffffffffff021916908373ffffffffffffffffffffffffffffffffffffffff160217905550806002819055505061038f806100fa6000396000f3fe608060405234801561001057600080fd5b5060043610610074576000357c01000000000000000000000000000000000000000000000000000000009004806307c538d01461007957806313af4035146100d857806318bf0bf21461011c578063a18a186b1461013a578063ad91363314610184575b600080fd5b6100816101ce565b6040518080602001828103825283818151815260200191508051906020019060200280838360005b838110156100c45780820151818401526020810190506100a9565b505050509050019250505060405180910390f35b61011a600480360360208110156100ee57600080fd5b81019080803573ffffffffffffffffffffffffffffffffffffffff16906020019092919050505061025c565b005b610124610306565b6040518082815260200191505060405180910390f35b610142610310565b604051808273ffffffffffffffffffffffffffffffffffffffff1673ffffffffffffffffffffffffffffffffffffffff16815260200191505060405180910390f35b61018c61033a565b604051808273ffffffffffffffffffffffffffffffffffffffff1673ffffffffffffffffffffffffffffffffffffffff16815260200191505060405180910390f35b6060600380548060200260200160405190810160405280929190818152602001828054801561025257602002820191906000526020600020905b8160009054906101000a900473ffffffffffffffffffffffffffffffffffffffff1673ffffffffffffffffffffffffffffffffffffffff1681526020019060010190808311610208575b5050505050905090565b80600160006101000a81548173ffffffffffffffffffffffffffffffffffffffff021916908373ffffffffffffffffffffffffffffffffffffffff16021790555060038190806001815401808255809150509060018203906000526020600020016000909192909190916101000a81548173ffffffffffffffffffffffffffffffffffffffff021916908373ffffffffffffffffffffffffffffffffffffffff1602179055505050565b6000600254905090565b6000600160009054906101000a900473ffffffffffffffffffffffffffffffffffffffff16905090565b60008060009054906101000a900473ffffffffffffffffffffffffffffffffffffffff1690509056fea165627a7a72305820425bb32c05ae72d409efb1cdac860501f2c262e05846518cd588fdf2db051dde0029a165627a7a72305820d6100d49ef56bce642a2cb4fce3982055cfe4d56b1394cb1f4c7398be2bc2c690029",
  "source": "\npragma solidity 0.5.3;\n\nimport \"./Property.sol\";\n\ncontract User\n{\n    enum PostStatus {POST_CREATED, LOAN_GIVEN, PROPERTY_RETURNED}\n    \n    // Common behaviors of all users\n    address payable private account;\n    Property[] private properties;\n\n    // Borrower: Structure of a request\n    struct Request {\n        address payable borrowerAddress;\n        address payable lenderAddress;\n        uint amount;\n        uint interestRate;\n        uint numProperties;\n        Property[] propertiesForMortgage;\n        bool accepted;\n    }\n    \n    // Lender: Structure of a post\n    struct Post {\n        address payable lenderAddress;\n        uint amount;\n        uint interestRate;\n        uint numRequests;\n        PostStatus status;\n        mapping (uint => Request) requests;\n        mapping (uint => Request) acceptedRequest;\n    }\n    \n    // Lender: Post data\n    uint private postCount;\n    Post[] private postsGiven;\n    Request[] private requestsMade;\n    \n    // Constructor of a user\n    constructor() payable public {\n        account = msg.sender;\n        postCount = 0;\n    }\n\n    // Borrower: Adds new property\n    function addProperty(uint _value) public {\n        Property newProperty = new Property(_value);    \n        properties.push(newProperty);\n    }\n\n    // Lender: Creates a new post\n    function createPost(uint _lendAmount, uint _interestRate) public {\n        require(_lendAmount <= account.balance); \n        postsGiven[postCount] = Post(account, _lendAmount, _interestRate, 0, PostStatus.POST_CREATED);\n        postCount++;\n    }\n\n    \n    // Borrower: Makes a request\n    function makeRequest(Post storage _post, uint[] memory propertyNumbers, uint count) private {\n        uint i;\n        uint j;\n        Property[] memory upForMortgage = new Property[](count);\n        for(i = 0; i < count; i++) {\n            j = propertyNumbers[i];\n            upForMortgage[i] = properties[j];\n        }\n        \n        for (i = 0; i < _post.numRequests; i++) {\n            if (_post.requests[i].borrowerAddress == account) {\n                break;\n            }\n        }\n        \n        if (i == _post.numRequests) {\n            _post.requests[i] = Request(account, _post.lenderAddress, _post.amount, _post.interestRate, count,  upForMortgage, false);\n            _post.numRequests++;\n        }\n    }\n\n\n    // Lender: Accepts a request\n    function acceptRequest(uint postNumber, uint requestNumber) private {\n        Post storage _post = postsGiven[postNumber];\n        Request storage _request = _post.requests[requestNumber];\n        _request.accepted = true;\n        uint i;\n        for(i = 0; i < _request.numProperties; i++) {\n            _request.propertiesForMortgage[i].setOwner(account);\n        }\n        _post.status = PostStatus.LOAN_GIVEN;\n        _post.acceptedRequest[0] = _request;\n        address payable selectedBorrower = _request.borrowerAddress;\n        selectedBorrower.transfer(_post.amount);\n    }\n\n    // Borrower: Return the loan back\n    function returnLoan(uint requestNumber) private {\n        require(requestsMade[requestNumber].accepted);\n        uint returnMoney = requestsMade[requestNumber].amount + ((requestsMade[requestNumber].amount * requestsMade[requestNumber].interestRate) / 100);\n        \n        require(returnMoney <= account.balance);\n        \n        requestsMade[requestNumber].lenderAddress.transfer(returnMoney);\n        \n        uint i;\n        for(i = 0; i < requestsMade[requestNumber].numProperties; i++) {\n            requestsMade[requestNumber].propertiesForMortgage[i].setOwner(account);\n        }\n    }\n\n}",
  "sourcePath": "/media/prophecy/code/blockchain/boilerplate-blockchain/contracts/Users.sol",
  "compiler": {
    "name": "solc",
    "version": "0.5.3+commit.10d17f24.Emscripten.clang"
  },
  "schemaVersion": "3.0.1",
  "updatedAt": "2019-01-25T04:59:04.834Z",
  "devdoc": {
    "methods": {}
  },
  "userdoc": {
    "methods": {}
  }
}